:100000000A308A00D92A00000A108A100A110B3E11
:1000100003188A0A820000340034003400340034AB
:10002000003400345F3400340034003403340034CE
:100030000334003414343E3414343E341434243441
:100040002A347F342A341234433433340834663447
:100050006134363449345534223450340034053454
:1000600003340034003400341C342234413400346E
:100070000034413422341C340034143408343E3407
:1000800008341434083408343E3408340834003456
:100090005034303400340034083408340834083420
:1000A00008340034603460340034003420341034B8
:1000B0000834043402343E345134493445343E3437
:1000C0000034043402347F34003442346134513417
:1000D00049344634223441344934493436341834AE
:1000E000143412347F3410342734453445344534C5
:1000F00039343E34493449344934323401340134DA
:100100007134093407343634493449344934363487
:1001100026344934493449343E3400343634363494
:10012000003400340034563436340034003408349B
:100130001434223441340034143414341434143458
:100140001434003441342234143408340234013479
:100150005134093406343E344134593455345E3414
:100160007E340934093409347E347F3449344934C7
:10017000493436343E3441344134413422347F34BE
:100180004134413441343E347F3449344934493474
:1001900041347F3409340934093401343E34413464
:1001A000413449343A347F340834083408347F34D5
:1001B000003441347F3441340034303440344034EE
:1001C00040343F347F3408341434223441347F3493
:1001D00040344034403440347F3402340C340234F0
:1001E0007F347F340234043408347F343E34413465
:1001F000413441343E347F340934093409340634FF
:100200001E342134213421345E347F3409340934DE
:10021000093476340A148A100A11820726344934C4
:10022000493449343234013401347F3401340134E7
:100230003F344034403440343F341F342034403461
:1002400020341F347F342034103420347F34413440
:1002500022341C34223441340734083470340834D6
:1002600007346134513449344534433400347F34E5
:10027000413400340034023404340834103420345F
:100280000034003441347F34003404340234013407
:100290000234043440344034403440344034003478
:1002A000013402340434003420345434543454348B
:1002B00078347F3444344434443438343834443427
:1002C00044344434443438344434443444347F343F
:1002D00038345434543454341834043404347E34AC
:1002E0000534053408345434543454343C347F34A5
:1002F0000834043404347834003444347D344034D5
:1003000000342034403444343D3400347F341034DD
:10031000283444340034003441347F3440340034D1
:100320007C3404347834043478347C340834043431
:1003300004347834383444344434443438347C34E9
:100340001434143414340834083414341434143485
:100350007C3400347C340834043404344834543459
:10036000543454342034043404343F344434443456
:100370003C344034403420347C341C342034403409
:1003800020341C343C344034303440343C34443425
:1003900028341034283444340C345034503450341D
:1003A0003C344434643454344C34443400340834DD
:1003B000363441344134003400347F340034003466
:1003C00041344134363408340034023401340234C8
:1003D00004340234452B4527D42720215427A0126A
:1003E000750000308316880086118312861103176A
:1003F000C6080319022A8316031386108312861473
:10040000072A031783160313061083120614082AFB
:10041000092A000083168801831203174708031373
:100420008800122A132A0000831606128312061669
:10043000192A1A2A0000831606128312061283163E
:100440000610831206108316861083128610080089
:10045000F701F80103173F0803104018F707F70CDE
:10046000F80CC018F707F70CF80C4019F707F70C51
:10047000F80CC019F707F70CF80C401AF707F70C3F
:10048000F80CC01AF707F70CF80C401BF707F70C2D
:10049000F80CC01BF707F70CF80C03130800031740
:1004A000AF012F08073C031CA72A8316031306116C
:1004B000831206110317C6014030C7000313F12150
:1004C00001300317C6004030C7000313F1210317A2
:1004D0002F08B838B100C6013108C7000313F12155
:1004E00003172F08B838B1000130C6003108C70023
:1004F0000313F12183160611831206150317B001A9
:1005000030083F3C031CA52AFF30BF002E08C00066
:100510000313282278080317B100C6013108C70069
:100520000313F121FF300317BF002E08C00003138F
:10053000282278080317B1000130C6003108C7002F
:100540000313F1210317B00A802AAF0A512A0313BB
:1005500008008316861283128616831606128312EB
:100560000612831606108312061083168610831255
:10057000861083160611831206110317C601C030B8
:10058000C7000313F12101300317C600C030C700B4
:100590000313F1210317C6014030C7000313F121F3
:1005A00001300317C6004030C7000313F1210317C1
:1005B000C601B830C7000313F12101300317C6008C
:1005C000B830C7000313F1218316670BF72A831293
:1005D0000317C6013F30C7000313F1210130031791
:1005E000C6003F30C7000313F121052B8316831289
:1005F0000317C6013E30C7000313F1210130031772
:10060000C6003E30C7000313F1210317AE010313E8
:100610004F228A150A12EA2BFF30831688008611B2
:10062000831286150317C50803191D2B83160313A0
:10063000861083128614222B0317831603130610C9
:1006400083120614232B242B000083160612831218
:1006500006162A2B2B2B0000FF30831688008312EE
:1006600008080317C6008316031306128312061226
:1006700083160610831206108316861083128610C6
:1006800003174608F80003130800031743103F0838
:100690003F3C03184E2B4030BF0243148316031314
:1006A0000611831206110317BF133F1700304318BA
:1006B0000130C400C6003F08C7000313F121003019
:1006C000031743180130C400400CF700F70CF70C77
:1006D0001F30F7057708BF39B838C5004408C60091
:1006E0004508C7000313F12183160611831206156E
:1006F0000030031743180130C400C50003130C2356
:100700000030031743180130C400C50003130C2345
:1007100078080317C200410B9D2B40080739C4001D
:100720000130F7004408F80003199A2B0310F70D65
:10073000F80B962B7708C204AD2B40080739C4008C
:100740000130F7004408F8000319AA2B0310F70D35
:10075000F80BA62B7708FF3AC20583160313061180
:10076000831206110030031743180130C400C6007D
:100770003F08C7000313F1218316061183120615E3
:100780000030031743180130C400C6004208C700F8
:100790000313F121080003173108FA003008840020
:1007A00083137A18831780080319C12C3108FA00C3
:1007B0003008840083137A1883170008523C031C06
:1007C000062C3108FA003008840083137A18831746
:1007D00020300002BE00BF000530C00003132822F5
:1007E00078080317BD00F8000530F70038308400A2
:1007F00083177808031304208000F80A840AF70B93
:10080000022C042C0317F92B3C2C03173108FA0097
:100810003008840083137A18831700087E3C031C79
:10082000362C3108FA003008840083137A188317B5
:1008300053300002BE00BF000530C0000313282261
:1008400078080317BD00F8000530F7003830840041
:100850008317780803130A218000F80A840AF70B2B
:10086000322C342C0317292C3C2C0317B801B90166
:10087000BA01BB01BC01031303173108FA003008A9
:10088000840083137A18831700080A3A03130319A4
:100890004D2C073A03195A2C5E2C07300317BF0062
:1008A0003208C00003132822013078070317AF076E
:1008B000BC2C03130317AE01BC2C03130530031724
:1008C000BF003208C00003132822780803172E0740
:1008D0007F3C0318762CAE010730BF003208C00001
:1008E00003132822013078070317AF07B401340837
:1008F000043C031CBC2CB5013508063C031CB82C79
:1009000038303407840083170008BD00F70035082D
:10091000F80003198F2C0310F70CF80B8B2C771CA5
:10092000B62CB601320836020318B62CB7013208CD
:1009300037020318B42C37082E07BD003508BF0056
:100940003208C00003132822780803172F07360740
:10095000BE003D08BF003E08C0003308C1000313BD
:1009600045230317B70A972CB60A922CB50A7C2C9C
:10097000B40A3208AE07772CB00A0319B10AAE0ADE
:10098000CC2B03130800013003179D009E00A30128
:1009900014081602A4002408A41FD02C2408003C2C
:1009A0009C019B0015081702A4002408A41FDA2C40
:1009B0002408003C9A019900140816020318E22C3E
:1009C000FF309D00150817020318E82CFF309E0029
:1009D0001A081C02031C362D031DF22C19081B02D9
:1009E000031C362D0310990D9A0D1B081902F700F0
:1009F0001A08FA001C08031C1C0FFA0277089F0053
:100A00007A08A0001B081F02A1002008A2001C08F1
:100A1000031C1C0FA2029C08031D122D23081B029D
:100A2000031C352D1408BF001508C0001808C100AC
:100A3000031345230317A01F272D19089F071A0822
:100A400003181A0FA0071D0814079400332D21085E
:100A50009F0722080318220FA0071D0814079400FF
:100A60001E0815079500A30A0B2D792D03109B0D69
:100A70009C0D19081B02F7001C08FA001A08031C39
:100A80001A0FFA0277089F007A08A00019081F02BF
:100A9000A1002008A2001A08031C1A0FA2029A083B
:100AA000031D562D23081902031C792D1408BF00BD
:100AB0001508C0001808C100031345230317A01F21
:100AC0006B2D1B089F071C0803181C0FA0071E088E
:100AD00015079500772D21089F0722080318220F7C
:100AE000A0071D08140794001E0815079500A30A07
:100AF0004F2D03130800E830840083130008031906
:100B00008E2D0630F800F701F70B842DF80B832D9E
:100B10007B30F700F70B8A2D800B812D080003171F
:100B2000AE0103134F220F300317AE001430AF0095
:100B3000B1013030B0000130B200B3000313CB2359
:100B40008316E7016708643C031C9D2E0A30670783
:100B5000E8000A30E9002D30EA006808EB00323086
:100B6000EC000130ED00EE00ED080319172E6B08C4
:100B700069020318C82D69088312031790008316B1
:100B800003136B08831203179100D22D83160313EE
:100B90006B088312031790008316031369088312EE
:100BA00003179100831603136C086A020318E52DDE
:100BB0006A08831203179200831603136C088312CA
:100BC00003179300EF2D831603136C08831203178A
:100BD0009200831603136A08831203179300100808
:100BE0001102031C142E120883160313EF006F0862
:100BF000831203171302031C122E1008BF00831662
:100C000003136F0883120317C000831603136E08C3
:100C100083120317C100031345238316EF0AF72D30
:100C200083120317900AEF2D932E8316031369087E
:100C3000831203179400831603136A0883120317A1
:100C40009500831603136B0883120317960083160F
:100C500003136A08831203179700831603136E08A1
:100C60008312031798000313C324831669088312A1
:100C700003179400831603136C088312031795005F
:100C8000831603136B08831203179600831603134E
:100C90006C08831203179700831603136E088312E0
:100CA000031798000313C3248316690883120317DC
:100CB0009400831603136A088312031795008316A2
:100CC00003136908831203179600831603136C0835
:100CD000831203179700831603136E0883120317FA
:100CE00098000313C32483166B0883120317940020
:100CF000831603136A0883120317950083160313E0
:100D00006B08831203179600831603136C08831273
:100D100003179700831603136E08831203179800B6
:100D20000313C3240317143083160313E80083123C
:100D30007B2514308316E707A22D83120317AE011B
:100D400003134F228A150A12142C94138C110317C3
:100D50003108031393000230941BB52E8316141927
:100D6000AF2E0030111B01308312F800080014135D
:100D7000831691159119BA2E77189112771C911636
:100D80001116111AC12E83121308F8000800031758
:100D90003208B3000310B30C7830B305330CF700FE
:100DA000F70C3F30F70577083307B40032080F39E6
:100DB0003407F800031308000317AE0103134F2292
:100DC0001E300317AE000A30AF00B1014230B00050
:100DD0000130B200B3000313CB2314300317AE006D
:100DE0001E30AF00B1015130B0000130B200B3008D
:100DF0000313CB2314300317AE002D30AF00B10125
:100E00005D30B0000130B200B3000313CB238A156C
:100E10000A12372C03173108F80130020318132F78
:100E20003008F7001F2FF7010830B200B00DF70DA2
:100E3000310877020318F700F80DB20B162F0313D1
:100E400008006B08840083136C188317031732089B
:100E50008000840A80010313EB0A0319EC0A0800DE
:100E6000780803172E08B0006430B10003130A2776
:100E700077080317AE0078083030031D462FAF1CEB
:100E80004F2FAF194F2F2F1A2030492FAF112F128C
:100E90002F14F8077808B2000313212703172E0830
:100EA000B0000A30B10003130A2777080317AE0019
:100EB00078083030031D622FAF19682F2F1C682F60
:100EC0002F1A2030F8077808B200031321270317E0
:100ED0003030AE072E08B200031321270800831616
:100EE00085158312851D892F2210220883168700FD
:100EF00083120714A2102208831687008312871416
:100F00000430AF000130AE008316851583128519B9
:100F1000842F22172208831687008312071FA52F0C
:100F200022112208831687008312071583160910E1
:100F3000831209140530AF000130AE0022172208D9
:100F4000831687008312071B9E2FA2172208831681
:100F500087008312871FBF2F83168910831289147D
:100F600083160911831209150630AF000130AE0057
:100F7000A2172208831687008312871BB82F8A15B1
:100F80000A12742C2210220883168700831207107D
:100F9000A2102208831687008312871022112208CC
:100FA0008316870083120711831609108312091014
:100FB000831689108312891083160911831209116F
:060FC0008A150A127E2CC6
:101000002C08273C0318052879292C080317BF0052
:101010000530C0008A11031328228A157808013E82
:101020008316E800111411181328D0308312031707
:10103000B1008A110313A5268A1503300317B100E6
:101040008A110313A5268A15831691149118262850
:10105000D13083120317B1008A110313A5268A1514
:101060000130F7008A11B7268A1578087F390317EF
:10107000A900B2008A110313C7268A157808A600B2
:101080000130F7008A11B7268A1578083F3903170F
:10109000A900B2008A110313C7268A157808A30095
:1010A0000130F7008A11B7268A1578081F3903170F
:1010B000A900B2008A110313C7268A157808A40074
:1010C000F7018A11B7268A1578080317A900B2001C
:1010D0008A110313C7268A157808A50083161115EF
:1010E00011197028111411187328D03083120317A6
:1010F000B1008A110313A5268A150317B1018A11BD
:101100000313A5268A158316911491188528D130CA
:1011100083120317B1008A110313A5268A15013023
:10112000F7008A11B7268A1578087F390317A900B6
:10113000B2008A110313C7268A157808A900013066
:10114000F7008A11B7268A1578087F390317A90096
:10115000B2008A110313C7268A157808A800F70180
:101160008A11B7268A1578083F390317A900B200FB
:101170008A110313C7268A157808A700831611154C
:101180001119C02883120B08F7008B138316680807
:10119000831203178D000313230803178C00831693
:1011A0008C130C1555308D00AA308D008C148C18C2
:1011B000D7280C117708831203138B040130831690
:1011C0006807E90083120B08F7008B138316690880
:1011D000831203178D000313240803178C00831652
:1011E0008C130C1555308D00AA308D008C148C1882
:1011F000F7280C117708831203138B04023083162F
:101200006807E90083120B08F7008B13831669083F
:10121000831203178D000313270803178C0083160E
:101220008C130C1555308D00AA308D008C148C1841
:1012300017290C117708831203138B0403308316CC
:101240006807E90083120B08F7008B1383166908FF
:10125000831203178D000313280803178C008316CD
:101260008C130C1555308D00AA308D008C148C1801
:1012700037290C117708831203138B04043083166B
:101280006807E90083120B08F7008B1383166908BF
:10129000831203178D008316031367088312031745
:1012A0008C0083168C130C1555308D00AA308D00E0
:1012B0008C148C1859290C117708831203138B0492
:1012C000AC0A0B08F7008B1303178D0103132C08CE
:1012D00003178C0083168C130C1555308D00AA3023
:1012E0008D008C148C1872290C117708831203134B
:1012F0008B048A150A12262CAC08031D94290317A7
:10130000AE018A1103134F228A151E300317AE0057
:10131000AF00B101C030B0000130B200B3008A119B
:101320000313CB238A15D82A831667088312031761
:10133000BF000530C0008A11031328228A157808DF
:10134000013E8316E8006808831203178D00831698
:101350008C130C1483120C0883160313E90001305C
:101360006807EE006E08831203178D0083168C1336
:101370000C1483120C0883160313EA00023068076A
:10138000EE006E08831203178D0083168C130C1465
:1013900083120C0883160313EB0003306807EE007A
:1013A0006E08831203178D0083168C130C1483129E
:1013B0000C0883160313EC0004306807EE006E0877
:1013C000831203178D0083168C130C1483120C08E0
:1013D00083160313ED0083120317AE018A11031362
:1013E0004F228A150A300317AE00AF01B101AF30AA
:1013F000B0000130B200B3008A110313CB238A1569
:101400000130EC001030EB008316690883120317DB
:10141000AE000130AF008A11031330278A152F3038
:101420000317B2008A11031321278A1583166A084D
:1014300083120317AE000130AF008A110313302767
:101440008A1520300317B2008A11031321278A1549
:1014500020300317B2008A11031321278A1583163F
:101460006B0883120317AE000130AF008A1103131B
:1014700030278A153A300317B2008A110313212747
:101480008A1583166C0883120317AE000130AF0073
:101490008A11031330278A1514300317AE00193050
:1014A000AF000130B1001030B0000130B200B30025
:1014B0008A110313CB238A150130EC001030EB00A6
:1014C000EA3003178D0001308F0003100B30AE009F
:1014D00003130B080317AF0003138B1383160317B3
:1014E0008C170C14000000008312AF1F7A2A03131C
:1014F0008B1703170318A32A0C087F39AF000D08B8
:10150000B0000F08B1002F08B2008A110313212781
:101510008A15031730088D0031088F0003130B085C
:101520000317B20003138B13831603178C170C14C5
:10153000000000008312B21FA02A03138B170317A9
:10154000AE0BA32ABC2A0C0D0E0D7F39AF000D087F
:10155000B0000F08B1002F08B2008A110313212731
:101560008A15031730088D0031088F008D0A031982
:101570008F0A0310AE0B682A831603136D088312BB
:101580000317AE001B30AF008A11031330278A15F2
:1015900014300317AE002D30AF000130B100103011
:1015A000B0000130B200B3008A110313CB238A15B7
:1015B000080003081F398300FF30A200A21522088B
:1015C0008316870083122216220883168700313083
:1015D000930028308312940083169417141301305B
:1015E0008312A3000230A4001930A5000630A60023
:1015F0000130A7000530A8003930A900AA01AB01CD
:10160000AC01AD01AE01AF01EC01EB018316031794
:101610000908C039890003131F129F1200300317F5
:101620008800831287018801890183130313A001B5
:10163000A1014930B0004E30B1004930B200433012
:10164000B3004930B4004130B5004E30B6004430EC
:10165000B7004F30B8002030B9005330BA004930DD
:10166000BB005330BC005430BD004530BE004D308F
:10167000BF004130C000C1014D30C2004530C30041
:101680004E30C4005530C5002030C6005030C70071
:101690005230C8004930C9004E30CA004330CB0038
:1016A0004930CC005030CD004130CE004C30CF001E
:1016B000D0013130D1002030D2002D30D300203085
:1016C000D4004930D5004E30D6004930D7004330E1
:1016D000D8004930D9004130DA005230DB00DC015B
:1016E0003230DD002030DE002D30DF002030E00021
:1016F0005230E1004530E2004730E3004930E40079
:101700005330E5005430E6005230E7004F30E80037
:101710005330E900EA018316A0004930A10053309C
:10172000A2005430A3004530A4004D30A500413044
:10173000A6002030A7004130A8004330A900543053
:10174000AA004930AB005630AC004F30AD00AE01BE
:101750005230AF004530B0004730B1004930B200E0
:101760005330B3005430B4005230B5004F30B6009F
:101770002030B7004530B8005630B9004530BA00C7
:101780004E30BB005430BC004F30BD005330BE0063
:10179000BF01C0004930C1004E30C2002030C3003C
:1017A0005230C4004530C5004730C6004930C7003C
:1017B0005330C8005430C9005230CA004F30CB00FB
:1017C0005330CC00CD01FF3085000130E7008A1195
:1017D0008312A92A8A150317AE018A1103134F2217
:1017E0008A1503178D0183168C130C1483120C08B1
:1017F0000313AC002C0F122CAC010B08F7008B1359
:1018000003178D018C0183168C130C1555308D0038
:10181000AA308D008C148C180B2C0C1177088312B5
:1018200003138B048A118F2D8A150130AA003230E0
:101830008316E8008A1183127B258A15AE080319E6
:10184000272C2F088316E70083120028AE012A08F0
:10185000013A0319322C033A0319722C013A031985
:10186000852CB92CAB08031D3A2C8A11DC2E8A1565
:101870000130AB00831605148312051C5C2C031782
:10188000AE018A1103134F228A1514300317AE00DC
:101890001930AF00B101A030B0000130B200B30088
:1018A0008A110313CB238A150230AA00AB018316D9
:1018B000051483120518572C831685148312851C72
:1018C000712C01302C02AD002D088316E700831225
:1018D0007C210330AA00AB0183168514831285187E
:1018E0006C2CB92C8A116F2F8A158316051583125B
:1018F000051D842C0130AA008A11C22F8A15831677
:101900000515831205197F2CB92C83160514831233
:10191000051C9A2C01302C022D0203189A2CAD0ABA
:101920002D088316E70083127C2183160514831289
:101930000518952C831685148312851CAD2CAD08D3
:101940000319AD2CAD032D088316E70083127C210B
:101950008316851483128518A82C83160515831207
:10196000051DB92C0130AA0083160515831205192F
:06197000B42C172C6300EB
:04400E00F22CFF3F52
:00000001FF
;PIC16F887
;CRC=B97D  CREATED="10-feb.-26 22:40"
